{
  "contractName": "CaleroMain",
  "abi": [
    {
      "anonymous": false,
      "inputs": [
        {
          "indexed": true,
          "internalType": "address",
          "name": "backEndAddress",
          "type": "address"
        }
      ],
      "name": "BackEndUserAdded",
      "type": "event"
    },
    {
      "anonymous": false,
      "inputs": [
        {
          "indexed": true,
          "internalType": "address",
          "name": "previousOwner",
          "type": "address"
        }
      ],
      "name": "OwnershipRenounced",
      "type": "event"
    },
    {
      "anonymous": false,
      "inputs": [
        {
          "indexed": true,
          "internalType": "address",
          "name": "previousOwner",
          "type": "address"
        },
        {
          "indexed": true,
          "internalType": "address",
          "name": "newOwner",
          "type": "address"
        }
      ],
      "name": "OwnershipTransferred",
      "type": "event"
    },
    {
      "inputs": [],
      "name": "backEnd",
      "outputs": [
        {
          "internalType": "address",
          "name": "",
          "type": "address"
        }
      ],
      "stateMutability": "view",
      "type": "function",
      "constant": true
    },
    {
      "inputs": [
        {
          "internalType": "address",
          "name": "",
          "type": "address"
        }
      ],
      "name": "balances",
      "outputs": [
        {
          "internalType": "uint256",
          "name": "",
          "type": "uint256"
        }
      ],
      "stateMutability": "view",
      "type": "function",
      "constant": true
    },
    {
      "inputs": [],
      "name": "owner",
      "outputs": [
        {
          "internalType": "address",
          "name": "",
          "type": "address"
        }
      ],
      "stateMutability": "view",
      "type": "function",
      "constant": true
    },
    {
      "inputs": [],
      "name": "renounceOwnership",
      "outputs": [],
      "stateMutability": "nonpayable",
      "type": "function"
    },
    {
      "inputs": [
        {
          "internalType": "address",
          "name": "backEndUser",
          "type": "address"
        }
      ],
      "name": "setBackEndUser",
      "outputs": [],
      "stateMutability": "nonpayable",
      "type": "function"
    },
    {
      "inputs": [
        {
          "internalType": "address",
          "name": "newOwner",
          "type": "address"
        }
      ],
      "name": "transferOwnership",
      "outputs": [],
      "stateMutability": "nonpayable",
      "type": "function"
    },
    {
      "inputs": [
        {
          "internalType": "address",
          "name": "fromAddress",
          "type": "address"
        },
        {
          "internalType": "uint256",
          "name": "user_id",
          "type": "uint256"
        },
        {
          "internalType": "uint256",
          "name": "order_id",
          "type": "uint256"
        },
        {
          "internalType": "uint256",
          "name": "total_price",
          "type": "uint256"
        },
        {
          "internalType": "string",
          "name": "message",
          "type": "string"
        },
        {
          "internalType": "string",
          "name": "created_at",
          "type": "string"
        }
      ],
      "name": "addInvoice",
      "outputs": [],
      "stateMutability": "nonpayable",
      "type": "function"
    },
    {
      "inputs": [
        {
          "internalType": "uint256",
          "name": "id",
          "type": "uint256"
        }
      ],
      "name": "viewInvoice",
      "outputs": [
        {
          "internalType": "address",
          "name": "",
          "type": "address"
        },
        {
          "internalType": "address",
          "name": "",
          "type": "address"
        },
        {
          "internalType": "uint256",
          "name": "",
          "type": "uint256"
        },
        {
          "internalType": "uint256",
          "name": "",
          "type": "uint256"
        },
        {
          "internalType": "uint256",
          "name": "",
          "type": "uint256"
        },
        {
          "internalType": "string",
          "name": "",
          "type": "string"
        },
        {
          "internalType": "string",
          "name": "",
          "type": "string"
        },
        {
          "internalType": "bool",
          "name": "",
          "type": "bool"
        }
      ],
      "stateMutability": "view",
      "type": "function",
      "constant": true
    },
    {
      "inputs": [
        {
          "internalType": "address",
          "name": "buyerAddress",
          "type": "address"
        },
        {
          "internalType": "uint256",
          "name": "idx",
          "type": "uint256"
        }
      ],
      "name": "getIncomingInvoices",
      "outputs": [
        {
          "internalType": "uint256",
          "name": "",
          "type": "uint256"
        },
        {
          "internalType": "address",
          "name": "",
          "type": "address"
        },
        {
          "internalType": "uint256",
          "name": "",
          "type": "uint256"
        },
        {
          "internalType": "uint256",
          "name": "",
          "type": "uint256"
        },
        {
          "internalType": "uint256",
          "name": "",
          "type": "uint256"
        },
        {
          "internalType": "string",
          "name": "",
          "type": "string"
        },
        {
          "internalType": "string",
          "name": "",
          "type": "string"
        },
        {
          "internalType": "bool",
          "name": "",
          "type": "bool"
        }
      ],
      "stateMutability": "view",
      "type": "function",
      "constant": true
    },
    {
      "inputs": [
        {
          "internalType": "address",
          "name": "buyerAddress",
          "type": "address"
        }
      ],
      "name": "numberOfIncomingInvoices",
      "outputs": [
        {
          "internalType": "uint256",
          "name": "",
          "type": "uint256"
        }
      ],
      "stateMutability": "view",
      "type": "function",
      "constant": true
    },
    {
      "inputs": [
        {
          "internalType": "address",
          "name": "sellerAddress",
          "type": "address"
        },
        {
          "internalType": "uint256",
          "name": "idx",
          "type": "uint256"
        }
      ],
      "name": "getOutgoingInvoice",
      "outputs": [
        {
          "internalType": "uint256",
          "name": "",
          "type": "uint256"
        },
        {
          "internalType": "address",
          "name": "",
          "type": "address"
        },
        {
          "internalType": "uint256",
          "name": "",
          "type": "uint256"
        },
        {
          "internalType": "uint256",
          "name": "",
          "type": "uint256"
        },
        {
          "internalType": "uint256",
          "name": "",
          "type": "uint256"
        },
        {
          "internalType": "string",
          "name": "",
          "type": "string"
        },
        {
          "internalType": "string",
          "name": "",
          "type": "string"
        },
        {
          "internalType": "bool",
          "name": "",
          "type": "bool"
        }
      ],
      "stateMutability": "view",
      "type": "function",
      "constant": true
    },
    {
      "inputs": [
        {
          "internalType": "address",
          "name": "sellerAddress",
          "type": "address"
        }
      ],
      "name": "numberOfOutgoingInvoices",
      "outputs": [
        {
          "internalType": "uint256",
          "name": "",
          "type": "uint256"
        }
      ],
      "stateMutability": "view",
      "type": "function",
      "constant": true
    }
  ],
  "bytecode": "0x608060405234801561001057600080fd5b50336000806101000a81548173ffffffffffffffffffffffffffffffffffffffff021916908373ffffffffffffffffffffffffffffffffffffffff1602179055506119b9806100606000396000f3fe608060405234801561001057600080fd5b50600436106100b45760003560e01c80638da5cb5b116100715780638da5cb5b14610194578063c9cb122c146101b2578063e1bf2126146101ce578063f0c6dea614610205578063f2fde38b14610235578063f9aa607f14610251576100b4565b80631a12603f146100b957806327e235e3146100e95780632fc00dd5146101195780635b4f1a4014610150578063715018a61461016e5780637c380b4214610178575b600080fd5b6100d360048036038101906100ce91906113a6565b610288565b6040516100e091906113ec565b60405180910390f35b61010360048036038101906100fe91906113a6565b6102d4565b60405161011091906113ec565b60405180910390f35b610133600480360381019061012e9190611433565b6102ec565b604051610147989796959493929190611536565b60405180910390f35b61015861062b565b60405161016591906115c2565b60405180910390f35b610176610651565b005b610192600480360381019061018d9190611712565b61074f565b005b61019c6109ef565b6040516101a991906115c2565b60405180910390f35b6101cc60048036038101906101c791906113a6565b610a13565b005b6101e860048036038101906101e39190611433565b610b2c565b6040516101fc989796959493929190611536565b60405180910390f35b61021f600480360381019061021a91906113a6565b610e6b565b60405161022c91906113ec565b60405180910390f35b61024f600480360381019061024a91906113a6565b610eb7565b005b61026b600480360381019061026691906117d7565b611006565b60405161027f989796959493929190611804565b60405180910390f35b6000600460008373ffffffffffffffffffffffffffffffffffffffff1673ffffffffffffffffffffffffffffffffffffffff168152602001908152602001600020805490509050919050565b60056020528060005260406000206000915090505481565b60008060008060006060806000806002600460008d73ffffffffffffffffffffffffffffffffffffffff1673ffffffffffffffffffffffffffffffffffffffff1681526020019081526020016000208b8154811061034d5761034c611890565b5b90600052602060002001548154811061036957610368611890565b5b9060005260206000209060080201604051806101000160405290816000820160009054906101000a900473ffffffffffffffffffffffffffffffffffffffff1673ffffffffffffffffffffffffffffffffffffffff1673ffffffffffffffffffffffffffffffffffffffff1681526020016001820160009054906101000a900473ffffffffffffffffffffffffffffffffffffffff1673ffffffffffffffffffffffffffffffffffffffff1673ffffffffffffffffffffffffffffffffffffffff16815260200160028201548152602001600382015481526020016004820154815260200160058201805461045d906118ee565b80601f0160208091040260200160405190810160405280929190818152602001828054610489906118ee565b80156104d65780601f106104ab576101008083540402835291602001916104d6565b820191906000526020600020905b8154815290600101906020018083116104b957829003601f168201915b505050505081526020016006820180546104ef906118ee565b80601f016020809104026020016040519081016040528092919081815260200182805461051b906118ee565b80156105685780601f1061053d57610100808354040283529160200191610568565b820191906000526020600020905b81548152906001019060200180831161054b57829003601f168201915b505050505081526020016007820160009054906101000a900460ff1615151515815250509050600460008c73ffffffffffffffffffffffffffffffffffffffff1673ffffffffffffffffffffffffffffffffffffffff1681526020019081526020016000208a815481106105df576105de611890565b5b906000526020600020015481602001518260400151836060015184608001518560a001518660c001518760e0015198509850985098509850985098509850509295985092959890939650565b600160009054906101000a900473ffffffffffffffffffffffffffffffffffffffff1681565b60008054906101000a900473ffffffffffffffffffffffffffffffffffffffff1673ffffffffffffffffffffffffffffffffffffffff163373ffffffffffffffffffffffffffffffffffffffff16146106a957600080fd5b60008054906101000a900473ffffffffffffffffffffffffffffffffffffffff1673ffffffffffffffffffffffffffffffffffffffff167ff8df31144d9c2f0f6b59d69b8b98abd5459d07f2742c4df920b25aae33c6482060405160405180910390a260008060006101000a81548173ffffffffffffffffffffffffffffffffffffffff021916908373ffffffffffffffffffffffffffffffffffffffff160217905550565b60006040518061010001604052803373ffffffffffffffffffffffffffffffffffffffff1681526020018873ffffffffffffffffffffffffffffffffffffffff168152602001878152602001868152602001858152602001848152602001838152602001600015158152509050600281908060018154018082558091505060019003906000526020600020906008020160009091909190915060008201518160000160006101000a81548173ffffffffffffffffffffffffffffffffffffffff021916908373ffffffffffffffffffffffffffffffffffffffff16021790555060208201518160010160006101000a81548173ffffffffffffffffffffffffffffffffffffffff021916908373ffffffffffffffffffffffffffffffffffffffff16021790555060408201518160020155606082015181600301556080820151816004015560a08201518160050190805190602001906108b0929190611291565b5060c08201518160060190805190602001906108cd929190611291565b5060e08201518160070160006101000a81548160ff021916908315150217905550505060036000826000015173ffffffffffffffffffffffffffffffffffffffff1673ffffffffffffffffffffffffffffffffffffffff1681526020019081526020016000206001600280549050610945919061194f565b908060018154018082558091505060019003906000526020600020016000909190919091505560046000826020015173ffffffffffffffffffffffffffffffffffffffff1673ffffffffffffffffffffffffffffffffffffffff16815260200190815260200160002060016002805490506109c0919061194f565b908060018154018082558091505060019003906000526020600020016000909190919091505550505050505050565b60008054906101000a900473ffffffffffffffffffffffffffffffffffffffff1681565b60008054906101000a900473ffffffffffffffffffffffffffffffffffffffff1673ffffffffffffffffffffffffffffffffffffffff163373ffffffffffffffffffffffffffffffffffffffff1614610a6b57600080fd5b600073ffffffffffffffffffffffffffffffffffffffff168173ffffffffffffffffffffffffffffffffffffffff161415610aa557600080fd5b8073ffffffffffffffffffffffffffffffffffffffff167fa3208e5ad74a0a35fa8f46d899533c30a5a4784995922bc9afa47ed5ab8735d860405160405180910390a280600160006101000a81548173ffffffffffffffffffffffffffffffffffffffff021916908373ffffffffffffffffffffffffffffffffffffffff16021790555050565b60008060008060006060806000806002600360008d73ffffffffffffffffffffffffffffffffffffffff1673ffffffffffffffffffffffffffffffffffffffff1681526020019081526020016000208b81548110610b8d57610b8c611890565b5b906000526020600020015481548110610ba957610ba8611890565b5b9060005260206000209060080201604051806101000160405290816000820160009054906101000a900473ffffffffffffffffffffffffffffffffffffffff1673ffffffffffffffffffffffffffffffffffffffff1673ffffffffffffffffffffffffffffffffffffffff1681526020016001820160009054906101000a900473ffffffffffffffffffffffffffffffffffffffff1673ffffffffffffffffffffffffffffffffffffffff1673ffffffffffffffffffffffffffffffffffffffff168152602001600282015481526020016003820154815260200160048201548152602001600582018054610c9d906118ee565b80601f0160208091040260200160405190810160405280929190818152602001828054610cc9906118ee565b8015610d165780601f10610ceb57610100808354040283529160200191610d16565b820191906000526020600020905b815481529060010190602001808311610cf957829003601f168201915b50505050508152602001600682018054610d2f906118ee565b80601f0160208091040260200160405190810160405280929190818152602001828054610d5b906118ee565b8015610da85780601f10610d7d57610100808354040283529160200191610da8565b820191906000526020600020905b815481529060010190602001808311610d8b57829003601f168201915b505050505081526020016007820160009054906101000a900460ff1615151515815250509050600360008c73ffffffffffffffffffffffffffffffffffffffff1673ffffffffffffffffffffffffffffffffffffffff1681526020019081526020016000208a81548110610e1f57610e1e611890565b5b906000526020600020015481602001518260400151836060015184608001518560a001518660c001518760e0015198509850985098509850985098509850509295985092959890939650565b6000600360008373ffffffffffffffffffffffffffffffffffffffff1673ffffffffffffffffffffffffffffffffffffffff168152602001908152602001600020805490509050919050565b60008054906101000a900473ffffffffffffffffffffffffffffffffffffffff1673ffffffffffffffffffffffffffffffffffffffff163373ffffffffffffffffffffffffffffffffffffffff1614610f0f57600080fd5b600073ffffffffffffffffffffffffffffffffffffffff168173ffffffffffffffffffffffffffffffffffffffff161415610f4957600080fd5b8073ffffffffffffffffffffffffffffffffffffffff1660008054906101000a900473ffffffffffffffffffffffffffffffffffffffff1673ffffffffffffffffffffffffffffffffffffffff167f8be0079c531659141344cd1fd0a4f28419497f9722a3daafe3b4186f6b6457e060405160405180910390a3806000806101000a81548173ffffffffffffffffffffffffffffffffffffffff021916908373ffffffffffffffffffffffffffffffffffffffff16021790555050565b600080600080600060608060008060028a8154811061102857611027611890565b5b9060005260206000209060080201604051806101000160405290816000820160009054906101000a900473ffffffffffffffffffffffffffffffffffffffff1673ffffffffffffffffffffffffffffffffffffffff1673ffffffffffffffffffffffffffffffffffffffff1681526020016001820160009054906101000a900473ffffffffffffffffffffffffffffffffffffffff1673ffffffffffffffffffffffffffffffffffffffff1673ffffffffffffffffffffffffffffffffffffffff16815260200160028201548152602001600382015481526020016004820154815260200160058201805461111c906118ee565b80601f0160208091040260200160405190810160405280929190818152602001828054611148906118ee565b80156111955780601f1061116a57610100808354040283529160200191611195565b820191906000526020600020905b81548152906001019060200180831161117857829003601f168201915b505050505081526020016006820180546111ae906118ee565b80601f01602080910402602001604051908101604052809291908181526020018280546111da906118ee565b80156112275780601f106111fc57610100808354040283529160200191611227565b820191906000526020600020905b81548152906001019060200180831161120a57829003601f168201915b505050505081526020016007820160009054906101000a900460ff1615151515815250509050806000015181602001518260400151836060015184608001518560a001518660c001518760e001519850985098509850985098509850985050919395975091939597565b82805461129d906118ee565b90600052602060002090601f0160209004810192826112bf5760008555611306565b82601f106112d857805160ff1916838001178555611306565b82800160010185558215611306579182015b828111156113055782518255916020019190600101906112ea565b5b5090506113139190611317565b5090565b5b80821115611330576000816000905550600101611318565b5090565b6000604051905090565b600080fd5b600080fd5b600073ffffffffffffffffffffffffffffffffffffffff82169050919050565b600061137382611348565b9050919050565b61138381611368565b811461138e57600080fd5b50565b6000813590506113a08161137a565b92915050565b6000602082840312156113bc576113bb61133e565b5b60006113ca84828501611391565b91505092915050565b6000819050919050565b6113e6816113d3565b82525050565b600060208201905061140160008301846113dd565b92915050565b611410816113d3565b811461141b57600080fd5b50565b60008135905061142d81611407565b92915050565b6000806040838503121561144a5761144961133e565b5b600061145885828601611391565b92505060206114698582860161141e565b9150509250929050565b61147c81611368565b82525050565b600081519050919050565b600082825260208201905092915050565b60005b838110156114bc5780820151818401526020810190506114a1565b838111156114cb576000848401525b50505050565b6000601f19601f8301169050919050565b60006114ed82611482565b6114f7818561148d565b935061150781856020860161149e565b611510816114d1565b840191505092915050565b60008115159050919050565b6115308161151b565b82525050565b60006101008201905061154c600083018b6113dd565b611559602083018a611473565b61156660408301896113dd565b61157360608301886113dd565b61158060808301876113dd565b81810360a083015261159281866114e2565b905081810360c08301526115a681856114e2565b90506115b560e0830184611527565b9998505050505050505050565b60006020820190506115d76000830184611473565b92915050565b600080fd5b600080fd5b7f4e487b7100000000000000000000000000000000000000000000000000000000600052604160045260246000fd5b61161f826114d1565b810181811067ffffffffffffffff8211171561163e5761163d6115e7565b5b80604052505050565b6000611651611334565b905061165d8282611616565b919050565b600067ffffffffffffffff82111561167d5761167c6115e7565b5b611686826114d1565b9050602081019050919050565b82818337600083830152505050565b60006116b56116b084611662565b611647565b9050828152602081018484840111156116d1576116d06115e2565b5b6116dc848285611693565b509392505050565b600082601f8301126116f9576116f86115dd565b5b81356117098482602086016116a2565b91505092915050565b60008060008060008060c0878903121561172f5761172e61133e565b5b600061173d89828a01611391565b965050602061174e89828a0161141e565b955050604061175f89828a0161141e565b945050606061177089828a0161141e565b935050608087013567ffffffffffffffff81111561179157611790611343565b5b61179d89828a016116e4565b92505060a087013567ffffffffffffffff8111156117be576117bd611343565b5b6117ca89828a016116e4565b9150509295509295509295565b6000602082840312156117ed576117ec61133e565b5b60006117fb8482850161141e565b91505092915050565b60006101008201905061181a600083018b611473565b611827602083018a611473565b61183460408301896113dd565b61184160608301886113dd565b61184e60808301876113dd565b81810360a083015261186081866114e2565b905081810360c083015261187481856114e2565b905061188360e0830184611527565b9998505050505050505050565b7f4e487b7100000000000000000000000000000000000000000000000000000000600052603260045260246000fd5b7f4e487b7100000000000000000000000000000000000000000000000000000000600052602260045260246000fd5b6000600282049050600182168061190657607f821691505b6020821081141561191a576119196118bf565b5b50919050565b7f4e487b7100000000000000000000000000000000000000000000000000000000600052601160045260246000fd5b600061195a826113d3565b9150611965836113d3565b92508282101561197857611977611920565b5b82820390509291505056fea2646970667358221220a0fe1de28880860150250e230ed9c8406eab2dc2de89d4b9dc21ee76700470bc64736f6c634300080c0033",
  "immutableReferences": {},
  "source": "// SPDX-License-Identifier: MIT\npragma solidity >=0.4.22 <0.9.0;\n\nimport \"./Ownable.sol\";\n\n/**\n* @title CaleroMain\n* @dev Calero platform main smart contract.\n*/\ncontract CaleroMain is Ownable {\n    struct Invoice {\n        address seller;\n        address buyer;\n        uint user_id;\n        uint order_id;\n        uint total_price;\n        string message;\n        string created_at;\n        bool paid;\n    }\n    \n    Invoice[] internal invoices;\n    \n    mapping (address => uint[]) internal sellers;\n    mapping (address => uint[]) internal buyers;\n    mapping (address => uint) public balances;\n    \n    function addInvoice(address fromAddress, uint user_id, uint order_id, uint total_price, string memory message, string memory created_at) public {\n        Invoice memory inv = Invoice({\n            buyer: fromAddress,\n            seller: msg.sender, \n            user_id: user_id,\n            order_id: order_id,\n            total_price:total_price,\n            message: message,\n            created_at: created_at,\n            paid: false\n        });\n        \n\n        invoices.push(inv);\n        sellers[inv.seller].push(invoices.length - 1);\n        buyers[inv.buyer].push(invoices.length - 1);\n    }\n    \n    function viewInvoice(uint id) public view returns(address, address, uint, uint, uint, string memory, string memory, bool) {\n        Invoice memory inv = invoices[id];\n        return (inv.seller, inv.buyer, inv.user_id, inv.order_id, inv.total_price, inv.message, inv.created_at, inv.paid);\n    }\n    \n    \n    function getIncomingInvoices(address buyerAddress, uint idx) public view returns (uint, address, uint, uint, uint, string memory, string memory, bool) {\n        Invoice memory inv = invoices[ buyers[buyerAddress][idx] ];\n        return (buyers[buyerAddress][idx], inv.buyer, inv.user_id, inv.order_id, inv.total_price, inv.message, inv.created_at, inv.paid);\n    }\n    \n    function numberOfIncomingInvoices(address buyerAddress) public view returns (uint) {\n        return buyers[buyerAddress].length;\n    }\n\n\n    function getOutgoingInvoice(address sellerAddress, uint idx) public view returns (uint, address, uint, uint, uint, string memory, string memory, bool) {\n        Invoice memory inv = invoices[ sellers[sellerAddress][idx] ];\n        return (sellers[sellerAddress][idx], inv.buyer,  inv.user_id, inv.order_id, inv.total_price, inv.message, inv.created_at, inv.paid);\n    }\n    \n    function numberOfOutgoingInvoices(address sellerAddress) public view returns (uint) {\n        return sellers[sellerAddress].length;\n    }\n    \n    \n    // function pay(uint id) public payable {\n    //     Invoice storage inv = invoices[id];\n        \n    //     require(inv.paid == false);\n    //     require(inv.buyer == msg.sender);\n    //     require(msg.value == inv.amount);\n        \n    //     inv.paid = true;\n    //     balances[inv.seller] += msg.value;\n    // }\n    \n    // function withdraw() public {\n    //     require(balances[msg.sender] != 0);\n        \n    //     uint toWithdraw = balances[msg.sender];\n    //     balances[msg.sender] = 0;\n    //     msg.sender.transfer(toWithdraw);\n    //     payable(request.recipient).transfer(toWithdraw);\n    // }\n\n}",
  "sourcePath": "/home/kozocom/My-Project/Peio-pharmacity-managent/contracts/CaleroMain.sol",
  "compiler": {
    "name": "solc",
    "version": "0.8.12+commit.f00d7308.Emscripten.clang"
  },
  "schemaVersion": "3.4.11",
  "updatedAt": "2023-02-24T20:26:47.110Z",
  "networkType": "ethereum",
  "devdoc": {
    "details": "Calero platform main smart contract.",
    "kind": "dev",
    "methods": {
      "renounceOwnership()": {
        "details": "Allows the current owner to relinquish control of the contract."
      },
      "transferOwnership(address)": {
        "details": "Allows the current owner to transfer control of the contract to a newOwner.",
        "params": {
          "newOwner": "The address to transfer ownership to."
        }
      }
    },
    "title": "CaleroMain",
    "version": 1
  },
  "userdoc": {
    "kind": "user",
    "methods": {},
    "version": 1
  }
}